:10005100758A4C758C00D28C308DFDC28CC28D227C
:0F006100D2993099FDC2998F993099FDC2992299
:10007000EBFDEAFCE9F8EDFBECFAE8F9120026608A
:01008000146B
:10008100EDFBECFAE8F9120026FF12006108E870B6
:05009100E40C80E122F7
:0300960020B20B8A
:0C0099007590FFC2B4AE908E07D2B42266
:0300A50020B30D78
:0E00A8007590008F9000C2B5D2B57590FF2202
:1000B600759850758921758BFD758DFDD28ED2A8E8
:0A00C600D288D2ACD2AFD2B4D2B5CA
:0300D000300109F3
:0C00D300C2011200968F05D2023002F12B
:0900DF00C2028D071200A580E8A1
:07001500C0D0D201D0D032AF
:0A00E800C0E0C0D0EFC007309879E7
:1000F200C298859908D200E50824BF600514601DE6
:02010200806714
:100104007F411200A50F1200A50F1200A50F1200C7
:10011400A50F1200A50F1200A5804C750900E50972
:10012400B4E1005009AF091200A5050980F0750972
:1001340000E509B4E1005009AF091200A5050980E2
:10014400F0750900E509B4E1005009AF091200A5F2
:10015400050980F0750900E509B4E1005009AF090B
:0E0164001200A5050980F0D007D0D0D0E032FF
:030023000200E8F0
:03000300020015E3
:03000000020006F5
:0F000600758121E4787FF6D8FD75A0FF0200B662
:10002600EB30E11320E00EC083C08289828A83E030
:10003600D082D08322E3226405700EC083C08289F9
:0B004600828A8393D082D08322E722BD
:00000001FF
